:020000040800F2
:10000000E0310020A10100089D13000895130008AD
:10001000991300089D110008111400080000000049
:10002000000000000000000000000000A513000810
:10003000A111000800000000A1130008A913000886
:10004000BB010008BB010008BB010008BB010008A0
:10005000BB010008BB010008BB010008BB01000890
:10006000BB010008BB010008BB010008BB01000880
:10007000BB010008BB010008BB010008BB01000870
:10008000BB010008BB010008BB010008BB01000860
:10009000BB010008BB010008BB010008BB01000850
:1000A000BB010008BB010008BB010008BB01000840
:1000B0000D1400080000000000000000BB01000853
:1000C000BB0100080000000000000000BB010008A8
:1000D00000000000BB010008BB0100080000000098
:1000E000BB010008BB010008000000000000000088
:1000F0000000000000000000000000000000000000
:10010000000000000000000000000000BB0100082B
:100110000000000000000000BB010008BB01000857
:10012000BB010008BB010008BB010008BB010008BF
:10013000BB010008000000000000000000000000FB
:10014000BB010008BB010008BB010008BB0100089F
:10015000BB010008BB010008BB010008BB0100088F
:10016000BB010008BB010008BB0100080000000043
:10017000BB010008BB0100080000000000000000F7
:10018000BB010008BB010008BB010008DFF80CD070
:1001900000F022FD00480047511C0008E03100201B
:1001A0000648804706480047FEE7FEE7FEE7FEE711
:1001B000FEE7FEE7FEE7FEE7FEE7FEE7B91300080D
:1001C0008D01000840EA01039B0703D009E008C93C
:1001D000121F08C0042AFAD203E011F8013B00F80C
:1001E000013B521EF9D27047D2B201E000F8012B58
:1001F000491EFBD270470022F6E710B513460A46A7
:1002000004461946FFF7F0FF204610BD30B50446FE
:100210000020034600E05B1C934203D2E05CCD5C0F
:10022000401BF8D030BD10B54843044604F0C2FA74
:10023000002805D00021002C02D0641E0155FAE7E9
:1002400010BD00000FB400B589B00BA800906A463D
:1002500003480A9900F0CAFA09B05DF814FB0000DF
:10026000000000202DE9FF5F1D464FF0FF3BD5E960
:10027000014691465F464FF00008A9697F1C01982E
:100280008847296A824688470028F6D1BAF1FF3F9D
:100290000CD024F4C064002E19DD600614D5BAF128
:1002A0002B0F09D0BAF12D0F0ED103E0584604B040
:1002B00000F07EB844F48064A9697F1C01988847E7
:1002C000761E8246002E02DDBAF1300F03D0B9F15E
:1002D000000F26D032E0A969761E44F400747F1C1A
:1002E000019888478246002E05DDBAF1780F06D0C6
:1002F000BAF1580F03D0B9F1000F10D01EE0B9F1D8
:10030000000F02D0B9F1100F18D1A969761E24F49C
:1003100000747F1C019888478246102002E0082064
:1003200000E00A20814609E008FB0908A969761E59
:1003300044F400747F1C019888478246002E05DD36
:100340004946504600F044FA0028EDDAE969019880
:100350008847A00502D46FF00100A8E7E00725D187
:10036000600613D5600502D5C8F1000000E04046E4
:1003700029680A1D2A600968220501D5087015E060
:10038000220701D5088011E008600FE02868011DF0
:1003900029600068210502D580F8008006E0210769
:1003A00002D5A0F8008001E0C0F8008038467EE762
:1003B00030BCBDE8C09F00002DE9FF4F087883B036
:1003C0009946FF2805D0491C2D2804D00024002080
:1003D00008E000200BE00124F9E700EB800003EBCC
:1003E0004000491C0B78FF2BF7D104B14042002399
:1003F0000293147819461D462D2C01D02B2C04D1C4
:10040000521C2D2C13D000240294AA461478FF2CE1
:100410000FD00A25A3FB057801FB05814FF0000CE6
:1004200003FB0C11521CE3194AEB0101EEE7012416
:10043000EAE7814453EA010002D019F5C87F06DAE1
:1004400003980021C0E9001107B000F065B900254C
:10045000AE4E2F46DFF8B882184600F064FBCDE9B7
:100460000001B9F1000002DAC9F1000400E004461D
:100470000023A74A1AEB030B42EB045A12E0E007F1
:1004800007D02A4633463846414600F068FA074608
:1004900088462A4633461046194600F060FA05465B
:1004A0000E466410002CEAD1DDE90001B9F1000F1D
:1004B0005A46534606DA00F0C7FA3A46434600F079
:1004C000C3FA05E000F04BFA3A46434600F047FA1B
:1004D000029A0AB181F00041039AC2E90001B3E730
:1004E0002DE9FF4F1F468DB0D7E901464FF0FF3889
:1004F0002E2045464FF000090B90B9696D1C0E98EF
:100500008847396A824688470028F6D1BAF1FF3F0A
:100510000AD024F4D064002E11DDBAF12B0F08D0DC
:10052000BAF12D0F0BD102E0404611B08DE744F433
:100530008064B9696D1C0E9888478246761E6946AC
:10054000600501D52D2000E02B208DF8000001F181
:10055000010B0DF1200809E0B9696D1C0E98884760
:1005600082460F9844F40074761E0560002E02DD6A
:10057000BAF1300FF0D00B998A453ED144F0800497
:1005800006E00F99681CA9F1010944F400740860A1
:10059000B9696D1C761E0E98884782463028F0D0C7
:1005A0002BE00B998A4505D1200603D444F0800442
:1005B000761E18E0504604F096FB08B30DF11302C6
:1005C000761EAAF1300044F40074934506D20BF86D
:1005D000010B200607D5A9F1010003E0200602D493
:1005E00009F101008146A00502D50F99681C086039
:1005F000B9696D1C0E9888478246002ED1DC53E005
:10060000002E51DDBAF1650F02D0BAF1450F4BD182
:10061000A00549D5B9696D1C24F44074761E0E9866
:1006200088478246002E0CDD2B2804D0BAF12D0F0E
:1006300007D144F48074B9696D1C0E9888478246CE
:10064000761EE00501D52D2100E02B2108F8011BC5
:10065000CDF82C8021E00DF12901761E44F40074C0
:1006600088450CD2AAF1300010F0FF0088F8000095
:1006700002D10B99884509D908F1010806E0E00587
:1006800001D5244801E042F20F708146B9696D1C22
:100690000E98884782460F980560002E04DD50466C
:1006A00004F021FB0028D6D1F9690E988847FF2075
:1006B0008BF8000088F800000020069007904B4659
:1006C0006A4608A906A8FFF777FEA00502D46FF0D6
:1006D00001002AE714F0240F0AD0E00714D1DDE965
:1006E00006123868031D3B600068C0E900120BE089
:1006F000DDE9060100F054FA0146E00704D138684C
:10070000021D3A600068016028460EE700001440B0
:100710000000F03FF1D8FFFF30BCBDE8C08F30B51E
:100720000B46014600202022012409E021FA02F5AF
:100730009D4205D303FA02F5491B04FA02F5284449
:10074000151EA2F10102F1DC30BD2DE9F05F054676
:10075000002092469B4688460646814640241BE080
:10076000284641464746224600F05EFA53465A461E
:10077000C01A914110D311461846224600F019F8CC
:100780002D1A67EB01084F4622460120002100F098
:1007900010F817EB00094E41201EA4F10104DFDC24
:1007A000484631462A46434600F000B830BCBDE812
:1007B000C09F202A04DB203A00FA02F10020704793
:1007C0009140C2F1200320FA03F31943904070478F
:1007D0003A2800D2303820F02002412A01D3A2F179
:1007E0003700884201D34FF0FF307047024B9361CE
:1007F000024BD36100F040BA99190008190C0008A7
:100800002DE9FE4F804681EA0300C00F0C460090A0
:1008100021F0004123F00045B8EB0200A94105D2C8
:100820004046214690461C460B46024623F00040B7
:10083000104347D0270DC7F30A00C3F30A510290B3
:10084000401A019040286BDAC3F3130040F4801B78
:100850000098924620B10023D2EB030A63EB0B0B06
:1008600001985946C0F140025046FFF7A2FF0646E4
:100870000D4650465946019A00F0E6F910EB080083
:100880006141002487EA115284EAE7731A4340D099
:10089000009A62B3019A012A4FEA075215DC001B45
:1008A00061EB02014FF0004202EA0752CDE900423B
:1008B000001C41F5801132462B4600F031FA03B09E
:1008C00000F045B840462146F9E7001B61EB020104
:1008D000001C41F5801300185B412018A2F5001799
:1008E00047EB030140EAD570B6196D4111E06D0880
:1008F0004FEA360645EAC0754FEA0752001B61EB26
:100900000201001C41F5801149084FEA300000192E
:10091000514132462B4603B000F01CB800F0F1B94B
:100920000098012240000023D0EB020263EBE07349
:10093000009821464FEAE074B8EB000061EB040137
:10094000E9E783F000435BE781F0004158E730BC02
:10095000BDE8C08F30BCBDE8C04FFFF7DFBF2DE959
:10096000FE4F81EA030404F0004421F000410094AA
:100970004FF0000B23F0004350EA01045ED052EA2E
:1009800003045BD0C3F30A54C1F30A552C44A4F208
:10099000F3340194A0FB0254C1F3130141F480111C
:1009A000C3F3130343F4801301FB024400FB034E23
:1009B000840A970A44EA815447EA8357A4FB0768EC
:1009C00002958D0A05FB07854FEA932C04FB0C5416
:1009D0002705029D4FEA065847EA1637B5EB08058A
:1009E0006EEB070C870E920E47EA811742EA8312DC
:1009F000A7FB0201B6EB0B0164EB00042B0D43EAED
:100A00000C335E1844EB1C50DA465146E7FB0201FA
:100A1000C5F313044FEA0B3343EA14534FEA04328D
:100A2000019C43EA0603A4F10C040294009CCDE966
:100A300000B400F075F903B000F003B800200146DF
:100A4000F9E730BCBDE8C08F2DE9F04D81EA030421
:100A500004F0004B21F0004514464FF0000A23F04B
:100A6000004150EA050220D054EA01021DD0C5F32E
:100A70000A570246C5F31303C1F31300C1F30A5624
:100A800040F4801543F48013A7EB0608101BD646EC
:100A900008F2FD3873EB050002D308F1010801E00C
:100AA00092185B41B8F1000F03DA00200146BDE85F
:100AB000F08D00204FF48011064684460EE0171B8F
:100AC00073EB050705D3121B63EB050306434CEAE2
:100AD000010C49084FEA300092185B4150EA0107C7
:100AE000EDD152EA030012D082EA040083EA050144
:100AF000084305D0101BAB4106D20122002306E0BB
:100B000000224FF0004302E06FF0010253101AEB95
:100B100006004CEB085110EB0A0041EB0B01BDE85D
:100B2000F04D00F0EEB80EB540F2334202920022D2
:100B3000CDE90022134600F0F3F803B000BDC1F385
:100B40000A52C1F3130140F2FF3341F480119A427B
:100B500002DA00200146704740F233439A42A2F283
:100B6000334202DC524200F05FB8FFF722BE0000C1
:100B700030B5041E71F1000404DB4FF00044404224
:100B800064EB0101141E73F1000405DB1C464FF0F9
:100B90000043524263EB0403994208BF904230BDC8
:100BA00001F0004330B421F0004150EA010206D0C8
:100BB0000A0DA2F56072C1F31301002A02DC30BCF9
:100BC00000207047440F44EAC104C100E01830BC63
:100BD00000EBC25000F05EB8064C074D06E0E0683E
:100BE00040F0010394E8070098471034AC42F6D374
:100BF000FFF7D0FA78AC000898AC0008094910B5A6
:100C000008784C1C18B1401E0870205C10BD0021F3
:100C10000720ABBE207010BD02490878421C0A7044
:100C20007047000014000020202A04DB203A21FA3B
:100C300002F00021704721FA02F3D040C2F12002F5
:100C40009140084319467047202A06DBCB17203A0B
:100C500041FA02F043EAE07306E041FA02F3D040C1
:100C6000C2F12002914008431946704702681144BE
:100C70001378016018467047D160044951610449F6
:100C8000116200211161114600F09EB86D0C000840
:100C9000BD0D00080029A8BF7047401C490008BFCF
:100CA00020F00100704710B4B0FA80FC00FA0CF09C
:100CB00050EA010404BF10BC704749B1CCF12004D4
:100CC00021FA04F411FA0CF118BF01212143084361
:100CD000A3EB0C01CB1D4FEA00614FEA102042BF8D
:100CE000002010BC704700EBC35010440029A4BF83
:100CF00010BC7047401C490008BF20F0010010BC28
:100D0000704710B5141E73F1000408DA401C41F15D
:100D1000000192185B411A4301D120F0010010BD7F
:100D20002DE9F04D92469B4611B1B1FA81F202E0F5
:100D3000B0FA80F220329046FFF73BFD04460F46A2
:100D400040EA0A0041EA0B0153465A46084313D0D1
:100D5000114653EA010019D0C8F140025046FFF78E
:100D600063FF05460E46504659464246FFF721FDB1
:100D7000084305D0012004E020463946BDE8F08D47
:100D80000020054346EAE0762C4337430A98630582
:100D9000E40AA0EB08000022FD0A44EA47540A30A6
:100DA00002D500200146E9E7010510196941DDE996
:100DB000084500196941BDE8F04DA2E7C0B24FF403
:100DC000F05100F09BB900002DE9F34F8BB04FF0CC
:100DD000000801F10C000C464FF0010B46460DF1E6
:100DE000080A01906269012101989047051E2DD0E3
:100DF000252D2CD0216A8847C0B162690121019854
:100E00009047216A88470028F7D1411E62690198FE
:100E1000904700E0761CA1690B988847216A8847B3
:100E20000028F7D1E1690B988847DBE7A1690B98A7
:100E300088470746A84201D1761CD3E7E1690B98A1
:100E400088477F1C02D1B8F1000F6FD046E1002720
:100E500062693D463946019890472A2804D1626963
:100E60000121019890470125DFF8849262690121F0
:100E700001989047A0F130010A290AD24F45E5DCDC
:100E800007EB870100EB4107303FDFD445F0100549
:100E9000ECE7E90601D46FF000476C280AD04C2833
:100EA00014D0682815D06A280DD074281CD07A2850
:100EB0001AD01DE062690121019890476C2802D088
:100EC00045F0040514E045F002050DE045F020056D
:100ED0000AE06269012101989047682802D045F034
:100EE000080505E045F40065626901210198904715
:100EF000C4E9015765283DD019DC58287AD00CDCAC
:100F0000452837D004DC252826D0412831D131E0CE
:100F100046282FD047282CD12CE05B2877D0612899
:100F200028D063287CD0642823D15AE0D0E06F28F1
:100F300048D008DC66281DD067281BD0692821D03E
:100F40006E2816D127E0702845D0732868D0752800
:100F500047D078280DD14DE0A1690B988847054608
:100F600025283FF469AFE1690B9888476D1C3FF471
:100F70006AAFB3E023466A466FF001000B99FFF7B2
:100F8000AFFA9EE045F040006060A80723464FF0AE
:100F9000000236D43EE0E8077FF447AF2068011D29
:100FA00021600068290501D506701BE7290701D5D6
:100FB000068017E7A90703D5F117C0E9006111E71B
:100FC00006600FE745F040006060A80723464FF039
:100FD000080216D41EE040F60E0125EA010060600A
:100FE00016E045F040006060A80723464FF00A0273
:100FF00007D40FE045F040006060A80708D52346FD
:1010000010226FF001000B99AFF3008059E007E068
:10101000234610226FF001000B99FFF723F950E0EF
:101020004FF000094F464B46632802D05B2806D09C
:1010300040E0E80601D40120A06001273AE062699F
:101040000121019890475E2805D14FF0010962699E
:10105000494601989047216939B900210A4653460B
:1010600043F82120491C0829FADBB0B3216969B98A
:10107000C11700EBD16253110AEB830122F01F026A
:10108000821A01200B68904003430B6062690121C2
:10109000019890475D28E8D1B9F1000F09D00020F0
:1010A000514651F82020D24341F82020401C082806
:1010B000F7DB02AB224600976FF001000B99AFF30C
:1010C000008000280CDA401C08D1BBF1000F05D0CD
:1010D0004FF0FF300DB000F00DB8FFE74046F9E7E4
:1010E000E90701D108F1010806444FF0000B79E649
:1010F000CCCCCC0C30BCBDE8C08F00007F2801D91F
:10110000002208E0064A02EB5002C007127800D124
:10111000120902F00F0201209040084070470000C1
:10112000106600080EB540F2334102910021CDE96E
:1011300000110A460B46FFF7F3FD03B000BD70B582
:101140008D1810F8014B14F0030201D110F8012B97
:10115000231106D110F8013B03E010F8016B01F8F0
:10116000016B521EF9D1ABB110F8012B04F00C0445
:101170008A1A0C2C03D0A2EB84129B1C08E010F8F6
:10118000014BA2EB0422F8E712F8014B01F8014BE6
:101190005B1EF9D5A942D4D3002070BDFEE7000044
:1011A000704700002DE9F04F85B0884640F60002F8
:1011B000C4F60002D8F800300721904208BF02218F
:1011C000002B009100F0E0804FF0010B00244FF065
:1011D000000A01274FF00009CDF8048003904EE08B
:1011E00040F20041C4F60001DDF800E0884208BF8B
:1011F0004FF0010E0AF00C010F2000FA01F62CEA64
:1012000006060EFA01F1314340F2004042F8231085
:10121000C4F201000168D8F8042041EA0503D603AE
:1012200058BF21EA050303604168960341EA0503BC
:1012300058BF21EA050343608168D60241EA0503ED
:1012400058BF21EA0503836040F20C40C4F201005C
:101250000168920241EA050358BF21EA05030360D1
:101260000398D8F8003009F1010933FA07F107F1C2
:1012700001070AF1040A04F1020400F08580A7F1D5
:10128000010C0BFA0CF213EA0201EAD0D8F804E0E0
:101290000291BEF1120F70D80BFA0EF313F0061F75
:1012A0006BD0D0F808B00320D8F80C3000FA04F561
:1012B0002BEA0506A3400398334383600398EB436E
:1012C00046684FEA1E1526EA0202039805FA0CF555
:1012D0002A43A3464260C268D8F808501A4005FA6B
:1012E0000BF52A434EF01005122DC26017D16FF096
:1012F000030101EA5C020244D2F820E00AF01C0576
:101300000F20D8F810101E4600FA05F32EEA03034A
:10131000A940194303981162D8F804E033460168E4
:101320000EF00302194002FA0BF211430160DDF8DE
:101330000480029D5FEACE024FF0010B91D541F28D
:101340006002C4F2020211684FEA9C0341F00101FD
:1013500011601168B0F1904F01F0010104910499FE
:1013600040F20041C4F20101A1F57E7252F823C09F
:101370007FF436AF4FF0000E3CE7032101FA04F290
:101380004FEA490BD343A6E705B000F000B830BCE4
:10139000BDE8C08FFEE70000FEE70000FEE70000AA
:1013A000704700007047000042F2D410C2F2000003
:1013B00001680131016070474EF68850CEF200009E
:1013C00001684FF0000C41F47001016041F200012E
:1013D000C4F202010A6842F001020A60C1F808C0C2
:1013E0000B684FF6FF72CEF6F6221A400A604FF4F1
:1013F0008052CA600A6822F480220A60C1F818C0CC
:101400004FF0006140F8801C7047000070470000FA
:10141000FEE700002DE9F04F81B02DED108BA0B05C
:10142000DFED05CACDE90432021D0C308C46029274
:1014300001901A9102E000BFF304353F4FEADC024D
:10144000D600A6EBDC00C000199002EB42001301AD
:1014500005014FEAC00902EB820003925401029A8F
:10146000C7004FF0000A1BA84FEACC0ECDE91E3C86
:1014700080E890401119199C02EB060802EB070E58
:10148000D71850194B46914402EB040B12ED011A88
:1014900011ED012A18ED013A1EED014A17ED017A0E
:1014A00050ED010A59ED011A5BED012A31EE025AA5
:1014B00033EE046A77EE203A71EEA24A75EE235AB3
:1014C00076EE246A75EEA67A42ED017A75EEE65A5A
:1014D000D8ED007A9EED008A99ED00BA9BED00CA26
:1014E000D2ED006A41ED015AD1ED005A97ED009A14
:1014F00090ED00AA37EE88EA7BEE0C8A36EEA5DA8C
:1015000039EE0AFA35EE635A36EE646A7EEE684AC0
:101510007DEE0F9A7DEE4F3A35EE24DA35EE645AC1
:101520007EEE28AA07ED01DA33EEC6DA00ED015AA5
:1015300036EE235A31EE421A33EE442A37EE603A41
:1015400031EEE24A37EEC86A7BEE4C0A79EEAABA6F
:1015500079EEEA9A72EE441A32EE042A36EE604AC6
:1015600036EE206AC2ED00BAC1ED009A87ED00DACE
:1015700080ED005A36EEE55A39EE4A7A61EEAC1A41
:1015800022EE2C2A24EE2C4A26EE2C6A71EE210A39
:1015900073EE022A75EE043A77EE064A31EE611ACE
:1015A00033EE422A35EE443A37EE464A70EEA45AFC
:1015B00070EEE40A31EE045A31EE441ADDF87CC0D4
:1015C00048ED015A73EEE25A4BED010A72EEA30A9E
:1015D0000EED015A33EE425A09ED011A32EE031AAA
:1015E0001A99C8ED005ACBED000A8EED005A89ED2C
:1015F000001A9946DDE91DE31C9F1B9CE2448A45C5
:101600007244FFF437AFBCF1400FC0F0B6810499CB
:10161000CDF8209088B2079003980C9501460228D7
:1016200098BF02210691C0EBC001DDF80480CD0017
:1016300000234FF0010E00BF0798DDF820C00344DF
:1016400005980B9300EBC30191ED000ACDE9098EDB
:101650008DED190A91ED010A00EB03118DED180AC9
:1016600091ED000A8DED170A91ED010A03EB43019C
:1016700000EBC1028DED160A92ED000A00EB01119C
:101680008DED150A92ED010A00EB43128DED140A5F
:1016900092ED000A8DED130A92ED010A03EB83022D
:1016A00000EBC2028DED120A92ED000A8DED110AD7
:1016B00092ED010A8DED100A91ED000A8DED0F0AF1
:1016C00091ED010AC3EBC30100EBC1018DED0E0AE0
:1016D00091ED000AD1ED016A8DED0D0A1E9808EB1F
:1016E000070308EB00070C9808EB040A08EB06094F
:1016F00008EB000B08EB0C0208EB050058ED017A33
:101700001AED018A19ED019A13ED01AA17ED01DA1C
:101710001BED01EA12ED01FA50ED018A37EE88BAAD
:1017200039EE0ACA7DEE0E9A7FEE28AA7BEE29BA20
:10173000F0EE6C3A7CEE2ACA7BEEACDA48ED01DAC8
:101740007BEEECBAD8ED00CADAED00DAD9ED00EAAA
:10175000D3ED00FA97ED000A9BED001A92ED002AF6
:1017600090ED003A3CEEAD4A3EEEAF5A30EE016AE3
:1017700032EE037A74EE060A75EE071ADDED134AAF
:10178000DDED125A70EEA12A70EEE10AC8ED002AD2
:1017900064EEAB1A65EEA02A71EEA21A64EEA00AFE
:1017A00065EEAB2A70EEE20A4AED011ACAED000AB4
:1017B0007BEE690A7CEE6A1A34EE464A35EE475AE9
:1017C0009DED17CADDED169A30EE856A34EE617A2A
:1017D0006CEE062A29EE87BA2CEE077A29EE866A85
:1017E00030EEC55A31EE844ADDED0F0ADDED0E1AFA
:1017F00037EE466A87ED006A20EE856A21EE847A2C
:1018000020EE844A21EE855A37EE066A34EE454AC8
:1018100039EE4A5A3FEE687A7EEEEF1A30EE410A10
:1018200032EE431A7BEE222A35EE472A35EE073A8E
:1018300031EEC15A31EE811A47ED012A0BED016AF2
:101840008BED004A37EEC84A3DEE4E6A7CEEED0A5B
:1018500022EE232A23EE233A25EE235A21EE231AE1
:10186000F0EE63CA34EE027A76EE031A70EE852A41
:1018700070EE017ADDED193A9DED18CA37EE278A30
:1018800032EEE19A23EE88AA2CEE09BA23EE899A69
:10189000DDED0D3A37EE677A71EEA21A63EE872A14
:1018A00066EEA17A63EEA11A26EE877A2CEE088AFC
:1018B00031EEC77A34EE422A36EE433A30EEC54A6C
:1018C00030EE410ADDED110ADDED101A39EE488ADD
:1018D00032EE001A34EE435A3AEE0BAA89ED008A32
:1018E00072EEA72A80ED007A20EE816A21EE857AD9
:1018F00020EE855A21EE811A09ED01AA40ED012A58
:1019000035EE411A1F9883ED001A33EE041A9DED4F
:10191000154A9DED145A1A9932EE400A86441D98D4
:101920001C9F1B9C24EE002A25EE013A24EE011A8E
:1019300025EE000A36EE076A32EE032A31EE400A3F
:101940008E45804403ED016A02ED012A82ED000A12
:10195000FFF4C4AEDDF828E00698DDF824800EF12F
:10196000010E0B9B864508F108087FF465AE0498CC
:10197000DDF80CC0C000049060E520B000F003B8B2
:1019800001B000F006B8BDEC088BBDEC08CBFFF74A
:10199000F7BF30BCBDE8C08F70B581B042F24800DF
:1019A000C2F20000816F202940F0988090F87010FA
:1019B000012900F093800021C1672221816742F252
:1019C000D411C2F2000101230A68A0F85830A0F82F
:1019D0005A308368C3B1B3F1805F1AD0B3F5805F2A
:1019E0001CD104690DF1030E002C23464FF0FF0CAF
:1019F00018BF734608BF40F2FF1CA0F85CC0002C63
:101A000018BF4FF0000E14E0036953B94FF0FF0CFC
:101A100009E003692BB14FF03F0C04E04FF0000CDC
:101A200001E04FF07F0C0DF103034FF0000EA0F822
:101A30005CC0002480F87040B0F85A4044B3046899
:101A4000E569AD060FD404680D68AE1A2568B6F5D1
:101A5000803F20D26D0744BFE5695FEA055526D473
:101A6000E569AD06F0D5A58C05EA0C0523B103F8B0
:101A7000015B046803E000BF2EF8025B0023B0F8AE
:101A80005A50013DA0F85A50B0F85A50002DD7D105
:101A90002021816722E025F4D0712160A16800F146
:101AA000740221F00101A16000F1780110E04FF40F
:101AB00000612162216800F1780221F4D071216077
:101AC000A16821F00101A1602021416700F17C01A2
:101AD000202313600B60002180F870109DF8030034
:101AE00001B070BDB0B581B042F2480E0090C2F2B4
:101AF000000EDEF8740020285ED19EF870000128E8
:101B00005AD04FF0000C212042F2D412CEF87CC003
:101B1000CEF87400C2F2000201201368AEF8500043
:101B2000AEF852008EF870C0DEF80010DEF8080043
:101B3000DEF81040BEF85250C5B380F48050204308
:101B40006C460CBFA4462046CC6924060CD414680D
:101B5000E51A0C68B5F5803F31D2640744BFCC6903
:101B60005FEA0454F0D536E018B110F8014B0C854B
:101B700005E03CF8020B6FF35F2008850020BEF8FB
:101B80005240013CAEF85240BEF85240002CDBD12E
:101B90000CE000BF1068C51A0868B5F5803F2DD26B
:101BA000400744BFC8695FEA005033D4C8694006A3
:101BB000F0D52020CEF874005DF8040BB0BD24F4FD
:101BC000D0700860886820F0010088600EF178000D
:101BD0000EF1740130E04FF400600862086820F4F0
:101BE000D0700860886820F0010088602020CEF85E
:101BF00074000EF17C000EF178011DE020F4D0702D
:101C00000860886820F0010088600EF178000EF10D
:101C1000740111E04FF400600862086820F4D0708D
:101C20000860886820F0010088602020CEF87400E9
:101C30000EF17C000EF1780120220A600260002083
:101C40008EF870005DF8040BB0BD000000000000CD
:101C5000ADF5107D4EF60C5B0021CEF2000B0B9122
:101C6000DBF800004FF6FF02104040F20032C0F2F5
:101C7000FA52104340F62819CBF80000C2F20009CE
:101C8000D9F8002044F6D35CC1F2620CA2FB0C230D
:101C90004FF0FF3202EB931241F20007B1EB126FEB
:101CA000C4F2020728D14EF21003CEF200035A60AC
:101CB0004EF62352CEF20002F026167007269960E7
:101CC0001E60DBF80030117042F2D811C2F2000140
:101CD00001220A70396E41F001013966396E01F056
:101CE000010110911099B96D41F08051B965B96D3C
:101CF00001F0805110911099B968FA6811F00C0147
:101D000005D00C294BD102F00302012A47D13A68D1
:101D10003A68120703D4D7F89420120900E03A6811
:101D200002F0E0025F2A15D8BA6DD20047F2000235
:101D3000C4F200025CD4BB6D43F08053BB65BB6D45
:101D400003F080531093109B1268BA6D22F08052FA
:101D5000BA654EE03A68062342F008023A603A68F3
:101D6000002963F307123A607A6822F47F427A60AE
:101D700078D1BA6DD20064D4BA6D42F08052BA659F
:101D8000BA6D02F080521092109A47F20002C4F22B
:101D900000021268BA6D22F08052BA6556E03868C7
:101DA00042F2D41240F001003860C2F2000213681F
:101DB0003868800737D41068C01A022800F2708192
:101DC000386880072FD41068C01A022800F2688192
:101DD0003868800727D41068C01A022800F2608192
:101DE000386880071FD41068C01A0228E0D957E16C
:101DF000126842F20002C4F20202136823F00703E1
:101E000013601268520740F04B813A68062342F093
:101E100008023A603A6863F307123A607A6822F47B
:101E20007F427A601EE03868062240F00800386081
:101E3000386862F307103860786820F47F40786073
:101E40009CE047F20002C4F20002126842F2000273
:101E5000C4F20202136823F00703136012685207EA
:101E600040F01E81BA68FB6812F00C0205D00C2A03
:101E700026D103F00303012B22D13B681B0703D4B7
:101E8000D7F894301B0A01E03B681B094AF2B07690
:101E900003F00F03C0F6000656F82340002A23463D
:101EA00018BF00230C2A34D1FA6802F00302022A78
:101EB0000FD0032A04BF41F20024C0F27A040CE0E0
:101EC000042A1DD0082A20D141F20023C0F27A034F
:101ED0001FE042F20044C0F2F404FA68FB68C2F367
:101EE0000212C3F30623FE6801326343B3FBF2F22E
:101EF000C6F34163022606EB4303B2FBF3F308E0AB
:101F000042F20043C0F2F40303E0002300240C2A51
:101F1000CAD0BA684AF66046C2F30312C0F6000699
:101F2000B25C002402F01F0223FA02F2A2FB0C367C
:101F30004FF0FF3303EB9616B4EB166FC9F8002091
:101F400040F0AE8042F2D812C2F200024EF210000F
:101F50004EF623531578CEF20000CEF20003466011
:101F6000F0261E700726012D8460066040F09880E0
:101F7000DBF800000020187001201070F86847F6A8
:101F8000737342F60102CFF66063C3F60002184095
:101F900090422DD13868800100F18780386842F284
:101FA000D41140F080703860F868C2F2000140F04F
:101FB0008070F8600A683868800176D40868801AF2
:101FC00002286DD8386880016FD40868801A02280A
:101FD00066D83868800168D40868801A02285FD8FB
:101FE0003868800161D40868801A0328E3D357E079
:101FF0000C2955D03868400152D4386842F2D411C7
:1020000020F080703860C2F200010B6838688001EF
:1020100019D50868C01A022842D83868800112D53C
:102020000868C01A02283BD8386880010BD50868B8
:10203000C01A022834D83868800104D50868C01A4C
:102040000228E3D92CE0F86848F28C03C0F29D1313
:1020500018401043F860386840F080703860F868C5
:1020600040F08070F8600A68386880011DD4086804
:10207000801A022814D83868800116D40868801A9B
:1020800002280DD8386880010FD40868801A022809
:1020900006D83868800108D40868801A0228E3D975
:1020A000EFF3108072B600BFFEE742F20008C4F200
:1020B0000208D8F8000040070CD4D8F8000004212A
:1020C00061F30200C8F80000D8F8000000F0070033
:1020D000042802D13868800103D4EFF3108072B66F
:1020E000FEE7B86842F2D41340F00300B860C2F2D1
:1020F0000003196841F28832B86800F00C000C281F
:102100001FD01868401A9042E7D8B86800F00C0059
:102110000C2816D01868401A9042DED8B86800F033
:102120000C000C280DD01868401A9042D5D8B86819
:1021300000F00C000C2804D01868401A9042DBD93B
:10214000CBE7B86820F0F000B860D8F8000000F0E5
:10215000070005280CD3D8F80000042161F3020021
:10216000C8F80000D8F8000000F007000428B4D137
:10217000B86820F4E060B860B86820F46050B860D7
:10218000B868FA6810F00C0105D00C2926D102F0CD
:102190000300012822D13868000703D4D7F894003F
:1021A000020A01E03868020902F00F004AF2B07238
:1021B000C0F6000252F820200029134618BF002361
:1021C0000C2934D1F86800F0030102290FD003294B
:1021D00004BF41F20022C0F27A020CE004291DD0B3
:1021E000082920D141F20023C0F27A031FE042F215
:1021F0000042C0F2F402F868F968C0F30210C1F3BB
:1022000006215143FA680130B1FBF0F0C2F341619D
:10221000022202EB4101B0FBF1F308E042F200437D
:10222000C0F2F40303E0002300220C29CAD0B868EE
:102230004AF66041C0F30310C0F60001085C00F0EC
:102240001F0023FA00F0A0FB0C124FF0FF3101EB4E
:1022500092130022B2EB136FC9F800007FF43DAF78
:1022600042F2D8114EF21005C2F200014EF6235090
:10227000CEF200050E78CEF200006B60F023037002
:10228000AA600722002E2A603FF427AF0024012510
:10229000DBF8002004700D70D7F8880047F2000AC0
:1022A00020F00C00C4F2000AC7F88800DAF8000039
:1022B00000F4C060B0F5007F2ED0DAF800003221C3
:1022C00065F34A20CAF80000D9F8000048434DF6EB
:1022D0008361C4F21B31A0FB0101880CDAF81410F1
:1022E000490514D5411C12D0DAF8141049050ED551
:1022F00068B1DAF81410490509D5012807D0DAF8D1
:102300001410490503D50228A0F10400E6D1DAF83B
:102310001400400500F1FC801494F86C082140F092
:102320000400F864F86C00F004000E900E98F86C4D
:1023300040F00100F864F86C00F001000E900E9877
:10234000F86C40F00200F864F86C00F002000E90A7
:102350000E9840F20040C4F600008162CDE91015ED
:1023600010A9CDE91244FEF71DFF41F6705008F5A3
:102370008051C2F2000001608480C0E9054405621A
:10238000417F51B900210177B96C41F48051B964A2
:10239000B96C01F480511091109943F2080141F693
:1023A000B7520223C4F20201C0F2C1424377CA60AD
:1023B0000A6842F2480522F018020A604FF0FF3224
:1023C0008A600A6844F2004E22F060020A600A68DD
:1023D000C2F2000522F080020A6001214177C4F2B6
:1023E000000E4FF4E13000240C21C5E900E0C5E9FE
:1023F0000244C5E90441C5E90644C5E90844686FDB
:1024000030B100224FF0000C00200023F0463EE0E7
:1024100085F87040B86D10A940F40030B865B86D0B
:102420000DF1400800F4003010901098F86C03266D
:1024300040F00100F864F86C022500F001001090F3
:102440001098042019C1072014904FF09040414685
:102450001396FEF7A7FE4FF40040CDE910054FF0AC
:1024600090404146CDE912461496FEF79BFE42F29B
:102470004805C2F2000505F1100C44F2004ED5F8F3
:102480000080D5E902329CE81310C4F2000E242625
:102490006E67D8F80060184326F00106C8F800609F
:1024A0000843D8F8001046F6F313CEF6FF7340EA5F
:1024B0000C0019400843C8F80000D8F804000AF5D9
:1024C000805120F440501043C8F80400286AD8F81E
:1024D0000820884518BF044322F4306042F2D41625
:1024E0002043F045C2F20006C8F8080015D048F2B3
:1024F0000000C4F20000804513D043F60000C4F28F
:102500000100804519D1D7F888000FF6F4320FE0AA
:10251000EFF3108072B600BFFEE7D7F8880080089E
:1025200002E0D7F88800800A4AF65042C0F600025E
:1025300000F0030052F8202000E0102288451AD055
:10254000BCF5004F38D1082A00F23A8142F200402F
:10255000C0F2F400DFE812F009005F0088003401E7
:1025600070003401340134018600D9F80000B968E4
:10257000C1F3022154E0082A00F2228142F2004114
:10258000C0F2F401DFE812F009001C01E5001C01B3
:1025900030001C011C011C014400D9F80000B9687E
:1025A0004AF67042C1F30221C0F60002515C01F00C
:1025B0001F0120FA01F3CAE0082A00F2018142F269
:1025C0000040C0F2F400DFE812F009005E0087006E
:1025D000FB006F00FB00FB00FB008500D9F800004A
:1025E000B968C1F3022153E0B868FA6810F00C0032
:1025F00007D00C2840F0C28202F00302012A40F00A
:10260000BD823A68120770D4D7F89420120A6EE09F
:102610004FF400419DE0D9F80000B968C1F3C22130
:102620004AF67042C0F60002515C01F01F0120FA28
:1026300001F21046C2B9AEE0B968FA6811F00C01B7
:1026400007D00C2941F0318602F00302012A41F043
:102650002C863A68120701F1B685D7F89420120A41
:1026600001F0B3BD4FF4004069684A0802EB400036
:10267000B0FBF1F04FF6F071014000F0A180C0F323
:102680004200084385E0D9F80000B968C1F3C221CF
:102690004AF67042C0F60002515C01F01F0120FAB8
:1026A00001F21046C2B976E0B968FA6811F00C017F
:1026B00007D00C2941F0078602F00302012A41F0FD
:1026C00002863A68120701F1B785D7F89420120AFA
:1026D00001F0B4BD4FF40040696800EB5100B0FB5D
:1026E000F1F080B2102854D26AE03A6812094AF236
:1026F000B07302F00F02C0F6000353F82220002846
:10270000134618BF00230C2821D1F86800F00300FD
:1027100002280AD042F2D416C2F20006032812BFE1
:10272000114641F20021C0F27A01F868FA68C0F35C
:102730000210C2F306225143FA680130B1FBF0F0F7
:10274000C2F34161022202EB4101B0FBF1F31946F1
:102750000BB36A6802EB4200814231D3100381421D
:102760002ED800205FEA50034FEA320010EB012020
:1027700043EB11610023FDF7E8FF4FF6005242F2F0
:10278000D416A0F54071C0F20F02C2F200069142C9
:1027900016D2C8F80C00696A00200029286668660D
:1027A0006ED0CA0713D18A071BD44A0723D40A075D
:1027B0002BD4CA0633D48A063BD44A0643D455E008
:1027C0000020C5E91800EFF3108072B6FEE7D8F8D4
:1027D0000420AB6A22F400321A43C8F804208A07A6
:1027E000E3D5D8F80420EB6A22F480321A43C8F803
:1027F00004204A07DBD5D8F804202B6B22F4802272
:102800001A43C8F804200A07D3D5D8F804206B6B04
:1028100022F400421A43C8F80420CA06CBD5D8F8DF
:102820000820AB6B22F480521A43C8F808208A06AD
:10283000C3D5D8F80820EB6B22F400521A43C8F82D
:1028400008204A0612D5D8F804202B6C22F48012F6
:102850001A43B3F5801FC8F8042007D1D8F8042024
:102860006B6C22F4C0021A43C8F80420090607D58D
:10287000D8F80410AA6C21F400211143C8F8041000
:10288000D8F8041021F49041C8F80410D8F80810C2
:1028900021F02A01C8F80810D8F8001041F0010111
:1028A000C8F80010E8673068D8F80010090700F190
:1028B0001381D8F80010490700F12281202000265A
:1028C0006867A86785F87060B86D4EF2100140F037
:1028D0000100B865B86DCEF2000100F00100109063
:1028E0001098DBF800004FF21070CFF6FF700BF875
:1028F00000604FF08050C1F8F0004FF08040016858
:1029000041F2883221F45C7101600821C4F20001B7
:102910004A6209220A62CA6842F23C0442F0010299
:10292000CA60026840F2C40942F08002026008688E
:102930004BF6F872CFF6FE721040086051F8040CA6
:10294000C2F2000420F0700041F8040C0868C2F2E2
:10295000000920F08000086005200090204600213A
:102960004A460123019603F063F98046000640F0D1
:10297000998146F2A060C0F60000D0E9000110ADD8
:102980000F9146F2A861C0F60001D1E900120E9045
:10299000CDE90C120CA90EAA284603F0D3F80028A2
:1029A00000F07C81BDF84E0080B141F6A05605F1E3
:1029B0000C070025C2F2000638462946324603F0CD
:1029C00009F8BDF84E0001358542F5D3256810A9F8
:1029D000284603F0C3F9002800F0608140F6D81AB9
:1029E000C2F2000A074610AA5046012103F0E4F89B
:1029F0000446002800F0CD8040F6A402C2F2000296
:102A00001368DAF8001043F08043136041F62C633A
:102A10000B44C2E9023340F2FC62C2F200021368C6
:102A200040F6580043F08043136042F2BC330B443D
:102A3000936041F6BC730B44D36040F24872C2F21B
:102A400000021368C2F2000043F08043136043F2B7
:102A500044730B44C2E9023340F25452C2F2000202
:102A60000668136846F0804643F0804306601360B2
:102A700043F60C4343F60C060B440E44C2E90236FF
:102A800040F2A052C2F20002136801F5806643F0E2
:102A90008043136043F6F4730B44C2E9023340F2FF
:102AA000AC32C2F200021368866043F080431360C8
:102AB00044F244030B44C2E9023340F2F832C2F25A
:102AC00000021368C16043F08040106044F2E400EB
:102AD0000844C2E9020061E0D8F81C1089023FF501
:102AE000E8AE31680A1AD8F80010B2F1007F30D28F
:102AF000490744BFD8F81C105FEA0151ECD511E03A
:102B0000D8F81C1049023FF5D9AE31680A1AD8F836
:102B10000010B2F1007F1CD24907F1D5D8F81C1083
:102B20000905EDD54FF40060C8F82000D8F8000082
:102B300005F1780120F4D070C8F80000D8F808003A
:102B400020F00100C8F808002020686705F17C002B
:102B50000DE021F4D070C8F80000D8F8080005F1A5
:102B6000740120F00100C8F8080005F17800202267
:102B70000A600260002085F8700024E604283FF413
:102B8000E8AD082841F0AD8341F20021C0F27A019E
:102B9000DFE538463021122203F0B6F940F6DC16A4
:102BA000C2F2000610AA3046012102F0EFFF002811
:102BB00068D0306840F23011C2F2000140F2CC72AD
:102BC000C1E9020000F58671C2F20002C2E90211F9
:102BD00040F2B062C2F20002C2E9021140F2246186
:102BE000C2F2000140F20852C1E9020000F1C8013E
:102BF000C2F20002C2E9021140F27C41C2F20001BD
:102C000040F26032C1E9020000F15001C2F200025C
:102C1000C2E9021140F2D421C2F20001C1E902006E
:102C200040F27C110830C2F20001C1E902002846DE
:102C300003F01DF9044242F23C04C2F200042DD01C
:102C400030E000BF00409C44000000002FFB483DE6
:102C50000FB17F3F36BDC83D6DC47E3F8340163EF9
:102C6000AC3A7D3FF304B53F0000003CA8A19D3F76
:102C7000F5CA83C0FBB3C040626567696E0000009F
:102C80002566000038463021132203F03DF928461E
:102C900003F0EDF842F23C04C2F20004206803F0B5
:102CA0004FF880465FEA086010AF22D1206830B943
:102CB00040F20010CAF2C010C9F8000048460021D6
:102CC00002F08EFF216842F24002C2F20002106060
:102CD00031B940F20010CAF2C0104946C9F80000EC
:102CE0000846002103F016F942F24401C2F2000145
:102CF000086040F6E01107F12400C2F200010890DC
:102D0000081F1FED308A5FED30CA1FED30CA1FED7E
:102D100030DA1FED30EA1FED30FA5FED308A5FEDFB
:102D2000309A5FED30AA5FED30BA5FED30EA5FEDCB
:102D300030FA1FED30AA4AF6E01B07F1180807F138
:102D400020090390A1F1C800B6EE00BAC0F6000B4E
:102D50000290CDE9069800BFAFF2E40001F01EFB3F
:102D6000039E40F2E244AFF2E8050DF1380A00BFDD
:102D700028465146FDF766FA0E98013C46F8040FC6
:102D8000F6D142F2D413C2F2000318681968091A86
:102D900001290BD81968091A012907D81968091AD5
:102DA000012903D81968091A0229EFD34EF2100637
:102DB000CEF20006306818687168B26801318A1A6C
:102DC0001092326842F2C80440F6E015D203C2F213
:102DD0000004C2F2000507D54EF21002CEF2000246
:102DE000186892688A1A1092109A4FF47A735A43AC
:102DF00095ED000A95ED011AB2FBF1F1029B4FF639
:102E0000203230EE011ACFF6FF7200BF93ED342A64
:102E100093ED353A93ED364A31EE021A93ED375A77
:102E200031EE031A93ED386A31EE041A93ED397AD4
:102E300031EE051AD3ED3A0A31EE061AD3ED3B1AFC
:102E400031EE071A31EE201A93ED3C2A31EE211AA9
:102E500093ED3D3A93ED3E4A31EE021A93ED3F5A1F
:102E600031EE031A93ED406A31EE041A93ED417A84
:102E700031EE051AD3ED420A31EE061AD3ED431AAC
:102E800031EE071A31EE201A93ED442A31EE211A61
:102E900093ED453A93ED464A31EE021A93ED475AC7
:102EA00031EE031A93ED486A31EE041A93ED497A34
:102EB00031EE051AD3ED4A0A31EE061AD3ED4B1A5C
:102EC00031EE071A31EE201A93ED4C2A31EE211A19
:102ED00093ED4D3A93ED4E4A31EE021A93ED4F5A6F
:102EE00031EE031A93ED506A31EE041A93ED517AE4
:102EF00031EE051AD3ED520A31EE061AD3ED531A0C
:102F000031EE071A31EE201A93ED542A31EE211AD0
:102F100093ED553A93ED564A31EE021A93ED575A16
:102F200031EE031A93ED586A31EE041A93ED597A93
:102F300031EE051AD3ED5A0A31EE061AD3ED5B1ABB
:102F400031EE071A31EE201A93ED5C2A31EE211A88
:102F500093ED5D3A93ED5E4A31EE021A93ED5F5ABE
:102F600031EE031A93ED606A31EE041A93ED617A43
:102F700031EE051AD3ED620A31EE061AD3ED631A6B
:102F800031EE071A93ED642A31EE201A93ED653A7B
:102F900031EE211A93ED664A31EE021A93ED675A2B
:102FA00031EE031A31EE041AD03331EE051A343201
:102FB0007FF42CAF81EE081A4FF47A7200FB0210F6
:102FC000002141F2243300BF6A1830EE410A82ED3D
:102FD000000A92ED010A92ED022A92ED033A30EED8
:102FE000410A92ED044A82ED010A32EE410A82ED75
:102FF000020A33EE410A92ED052A82ED030A34EE0D
:10300000410A82ED040A32EE410A92ED062A82ED6F
:10301000050A32EE410A92ED072A82ED060A32EEE7
:10302000410A92ED082A82ED070A32EE410A92ED3A
:10303000092A82ED080A32EE410A92ED0A2A82ED4F
:10304000090A32EE410A92ED0B2A82ED0A0A32EEAB
:10305000410A92ED0C2A82ED0B0A32EE410A92ED02
:103060000D2A82ED0C0A32EE410A92ED0E2A82ED13
:103070000D0A32EE410A92ED0F2A82ED0E0A32EE6F
:10308000410A92ED102A82ED0F0A32EE410A92EDCA
:10309000112A82ED100A32EE410A92ED122A82EDD7
:1030A000110A32EE410A92ED132A82ED120A32EE33
:1030B000410A92ED142A82ED130A32EE410A92ED92
:1030C000152A82ED140A32EE410A92ED162A82ED9B
:1030D000150A32EE410A92ED172A82ED160A32EEF7
:1030E000410A92ED182A82ED170A32EE410A9942FE
:1030F00082ED180A0CD092ED190A643164E700BF22
:1031000001000000040000000200000008000000B0
:1031100095ED000A95ED011A20EE000A21EE011A44
:1031200031EE009A6FF0CF0141F2B0236A1892EDB0
:10313000360A92ED371A92ED382A20EE000A92ED07
:10314000393A30EE090A21EE011A92ED3A4A31EE8F
:10315000000A22EE021A92ED3B5A31EE000A23EEEB
:10316000031A92ED3C6A31EE000A24EE041A92ED45
:103170003D7A31EE000A25EE051A31EE000A26EE00
:10318000061A31EE000A27EE071A31EE000A92ED18
:103190003E1A92ED3F2A92ED403A21EE011A92ED4D
:1031A000414A31EE000A22EE021A92ED425A31EE05
:1031B000000A23EE031A92ED436A31EE000A24EE70
:1031C000041A92ED447A31EE000A25EE051AD2ED8A
:1031D000450A31EE000A26EE061A31EE000A27EE05
:1031E000071A31EE000A20EEA01A31EE000A92ED25
:1031F000461A92ED472A92ED483A21EE011A92EDD5
:10320000494A31EE000A22EE021A92ED4A5A31EE94
:10321000000A23EE031A92ED4B6A31EE000A24EE07
:10322000041A92ED4C7A31EE000A25EE051AD2ED21
:103230004D0A31EE000A26EE061A31EE000A27EE9C
:10324000071A31EE000A20EEA01A31EE000A92EDC4
:103250004E1A92ED4F2A92ED503A21EE011A92ED5C
:10326000514A31EE000A22EE021A92ED525A31EE24
:10327000000A23EE031A92ED536A31EE000A24EE9F
:10328000041A92ED547A31EE000A25EE051AD2EDB9
:10329000550A31EE000A26EE061A31EE000A27EE34
:1032A000071A31EE000A20EEA01A31EE000A92ED64
:1032B000561A92ED572A92ED583A21EE011A92EDE4
:1032C000594A31EE000A22EE021A92ED5A5A31EEB4
:1032D000000A23EE031A92ED5B6A31EE000A24EE37
:1032E000041A92ED5C7A31EE000A25EE051AD2ED51
:1032F0005D0A31EE000A26EE061A31EE000A27EECC
:10330000071A31EE000A20EEA01A31EE000A92ED03
:103310005E1A92ED5F2A92ED603A21EE011A92ED6B
:10332000614A31EE000A22EE021A92ED625A31EE43
:10333000000A23EE031A92ED636A31EE000A24EECE
:10334000041A92ED647A31EE000A25EE051AD2EDE8
:10335000650A31EE000A26EE061A31EE000A27EE63
:10336000071A31EE000A20EEA01A31EE000A92EDA3
:10337000661A92ED672A92ED683A21EE011A92EDF3
:10338000694A31EE000A22EE021A31EE000A23EEFB
:10339000031A31EE000A24EE041AD031994231EEBC
:1033A000009A7FF4C3AEFDF7BDFE89EE081AB0EEB9
:1033B0006C0ACDE90401B5EE401AF1EE10FA07DB14
:1033C000B1EEC10AB4EE400AF1EE10FA80F1F586D2
:1033D0009FED7F9A0020B0EE6C1AB0EE6C2A84ED5F
:1033E000000A00BF291891ED003A91ED014A23EE41
:1033F000037A23EE077A27EE033A33EE011A24EE1E
:10340000043A91ED025A32EE072A24EE033A32EEE4
:10341000032A23EE043A33EE011A25EE053A91ED24
:10342000036A25EE033A32EE032A23EE053A33EE21
:10343000011A26EE063A26EE033A91ED044A32EEE0
:10344000032A23EE063A33EE011A24EE043A24EE60
:10345000033A32EE032A23EE043A91ED054A33EEA5
:10346000011A24EE043A24EE033A32EE032A23EE44
:10347000043A91ED064A33EE011A24EE043A24EEA2
:10348000033A32EE032A23EE043A91ED074A33EE73
:10349000011A24EE043A24EE033A32EE032A23EE14
:1034A000043A33EE011A91ED083A91ED094A23EE00
:1034B000035A23EE055A25EE033A33EE013A24EE81
:1034C000041A32EE052A24EE015A32EE051A25EED0
:1034D000042AB0F59B5F32EE032A7BD091ED0A3AC5
:1034E00091ED0B4A23EE037A23EE077A27EE033A97
:1034F00033EE022A24EE043A91ED0C5A31EE071A0B
:1035000024EE033A31EE031A23EE043A33EE022A94
:1035100025EE053A91ED0D6A25EE033A31EE031AD8
:1035200023EE053A33EE022A26EE063A26EE033A59
:1035300091ED0E4A31EE031A23EE063A33EE022ADB
:1035400024EE043A24EE033A31EE031A23EE043A51
:1035500091ED0F4A33EE022A24EE043A24EE033AA8
:1035600031EE031A23EE043A91ED104A33EE022AAB
:1035700024EE043A24EE033A31EE031A23EE043A21
:1035800091ED114A33EE022A24EE043A24EE033A76
:1035900031EE031A23EE043A33EE022A91ED123A89
:1035A00091ED134A23EE035A23EE055A25EE033A12
:1035B00033EE023A24EE042A31EE051A24EE025AC2
:1035C00031EE052A25EE041A31EE031A503009E7D0
:1035D000E09248C082EE082A81EE081A20EE003AF6
:1035E00020EE033A20EE030A38464FF4007182EED3
:1035F000000A81EE031AB8EE082A30EE020A84EDC2
:10360000011A84ED020AFCF7F6FD04F10C004FF4F8
:103610008071FCF7F0FD0020014680300A9040F2F6
:10362000E240441A40F26340814238BF8024AA46F7
:103630008020099105EB810A802C28BF0446802058
:103640000421FCF7F0FD804680200421FCF7EBFD0F
:103650008146A20040465146FCF7B4FD4AF2E072B2
:1036600040464021C0F600020123FDF7D3FE0020B2
:103670000BEB00013BF800204B8822F0030223F003
:10368000030358F8026058F8034008EB020708EB00
:10369000030548F8024048F803606A687B687A606E
:1036A0006B608A88CB8822F0030223F0030358F86A
:1036B000026058F8035008EB020708EB030448F8CF
:1036C000025048F8036062687B687A6063604B89E7
:1036D0000A8923F0030358F8035022F0030258F834
:1036E000026008EB030448F8025008EB0207626826
:1036F00048F803607B687A608A89C989636022F030
:10370000030221F0030158F8027058F8016008EB39
:10371000020308EB010548F8026048F80170696887
:103720005A681030702859606A60A1D198ED000A7B
:1037300098ED011A30EE000A31EE011A30EE012A3E
:1037400022EE0B2A89ED002A30EE410A98ED021A8A
:1037500098ED7E2A20EE0B0A89ED010A32EE410A2D
:1037600032EE011A98ED032A98ED7F3A20EE0C4ACA
:1037700031EE041A33EE024A24EE0D5A31EE051AE8
:1037800021EE0B1A89ED021A32EE431A20EE0D0AD1
:1037900031EE000A24EE0C1A30EE410A98ED7C1A44
:1037A00098ED042A20EE0B0A89ED030A31EE420A55
:1037B00031EE021A98ED7D2A98ED053A20EE0E4A78
:1037C00031EE041A32EE034A24EE0F5A31EE051A96
:1037D00021EE0B1A89ED041A33EE421A20EE0F0A7D
:1037E00031EE000A24EE0E1A30EE410A98ED7A1AF4
:1037F00098ED062A20EE0B0A89ED050A31EE420A01
:1038000031EE021A98ED7B2A98ED073A20EE284A0D
:1038100031EE041A32EE034A24EE295A31EE051A2B
:1038200021EE0B1A89ED061A33EE421A20EE290A10
:1038300031EE000A24EE281A30EE410A4AF65025ED
:1038400020EE0B0A002040210022C0F6000589ED81
:10385000070A00BF08EB000608EB0204AF1896ED5C
:10386000781A94ED082A96ED790A94ED093AD7ED85
:10387000080AD7ED091A94ED0A4A31EE426A31EE90
:10388000021A96ED762A94ED0B5A30EE037AD7EDB4
:103890000A2A66EE204A26EE216A33EE400A96EDA9
:1038A000773AD7ED0B3A60EE870A27EE217A31EEB0
:1038B000241A30EE060A32EE446A31EE071A30EE70
:1038C000600A33EE057A66EE220A32EE042A62EED0
:1038D000871A27EE237A32EE202A32EE072A09EBE6
:1038E000020322EE0B2A26EE236A83ED0A2A35EE26
:1038F000432A32EE062A32EE612A20EE0B0A22EE2D
:103900000B2A21EE0B1A83ED090A96ED740A83ED5A
:103910000B2A94ED0C2A83ED081A96ED751A94ED96
:103920000D3A97ED0C4A97ED0D5A30EE426A31EEA2
:10393000037A66EE040A30EE020A26EE056A27EEE6
:10394000055A30EE200A30EE050A20EE0B0A83ED10
:103950000C0A33EE410A24EE074A30EE060A30EE36
:10396000440A20EE0B0A83ED0D0A96ED720A94EDDF
:103970000E2A96ED731A94ED0F3A97ED0E4A97EDD5
:103980000F5A30EE426A31EE037A66EE040A30EEE8
:10399000020A26EE056A27EE055A30EE200A30EEBE
:1039A000050A20EE0B0A83ED0E0A33EE410A24EEDF
:1039B000074A30EE060A30EE440A043920EE0B0ABC
:1039C00020320429A0F1200083ED0F0A3FF642AF18
:1039D000D9E90001089C40F6E01542F2C80A002728
:1039E000C2F20005C2F2000A1090509109EB0706DE
:1039F00096ED020A96ED031A20EE000A21EE011A56
:103A000031EE000A20EE0B1AB1EEC10AB4EE400A04
:103A1000F1EE10FA80F1C88096ED041A96ED052AB1
:103A200021EE011A22EE022A32EE011A21EE0B2AB1
:103A3000B1EEC21A20EE2A0A04ED080AB4EE411AC9
:103A4000F1EE10FA80F1B58096ED060A96ED072AA0
:103A500020EE000A22EE022A32EE000A20EE0B2AA5
:103A6000B1EEC20A21EE2A1A04ED071AB4EE400A9A
:103A7000F1EE10FA80F1A48096ED081A96ED092A6D
:103A800021EE011A22EE022A32EE011A21EE0B2A51
:103A9000B1EEC21A20EE2A0A04ED060AB4EE411A6B
:103AA000F1EE10FA80F1918096ED0A0A96ED0B2A5C
:103AB00020EE000A22EE022A32EE000A20EE0B2A45
:103AC000B1EEC20A21EE2A1A04ED051AB4EE400A3C
:103AD000F1EE10FA80F1808096ED0C1A96ED0D2A29
:103AE00021EE011A22EE022A32EE011A21EE0B2AF1
:103AF000B1EEC21A20EE2A0A04ED040AB4EE411A0D
:103B0000F1EE10FA6DD696ED0E0A96ED0F2A20EE24
:103B1000000A22EE022A32EE000A20EE0B2AB1EE53
:103B2000C20A21EE2A1A04ED031AB4EE400AF1EE9D
:103B300010FA5DD696ED101A96ED112A21EE011AB3
:103B400022EE022A32EE011A21EE0B2AB1EEC21A3F
:103B500020EE2A0A04ED020AB4EE411AF1EE10FA40
:103B60004BD696ED120A96ED132A20EE000A22EEAD
:103B7000022A32EE000A20EE0B2AB1EEC20A21EE32
:103B80002A1A04ED011AB4EE400AF1EE10FA3BD6FF
:103B900020EE2A0A483784ED000AB7F5FC7F04F1CD
:103BA00024047FF423AF35E0B0EE410A00F0E4FDD9
:103BB00032E7B0EE420A00F0DFFDB0EE401A43E714
:103BC000B0EE420A00F0D8FD56E7B0EE420A00F02F
:103BD000D3FDB0EE401A67E7B0EE420A00F0CCFD2C
:103BE0007AE7B0EE420A00F0C7FDB0EE401A8AE76D
:103BF000B0EE420A00F0C0FD9CE7B0EE420A00F0D1
:103C0000BBFDB0EE401AACE7B0EE420A00F0B4FDE6
:103C1000BEE700BF404600F061FC484600F05EFC95
:103C2000DDF81C80002010AF391891ED000A91EDED
:103C3000011A20EE000A20EE2B0A91ED022A81EDF6
:103C4000000A21EE010A20EE2B0A91ED033A81EDE4
:103C5000010A22EE020A20EE2B0A81ED020A23EE6F
:103C6000030A91ED041A20EE2B0A81ED030A21EEDE
:103C7000010A91ED051A20EE2B0A81ED040A21EECE
:103C8000010A20EE2B0A08EB000281ED050A92EDF5
:103C9000000A92ED011A20EE000A20EE2B0A21EE16
:103CA000011A82ED000A91ED080A21EE2B1A82ED2D
:103CB000011A20EE000A91ED091A20EE2B0A81ED7F
:103CC000080A21EE010A91ED0A1A20EE2B0A81ED75
:103CD000090A21EE010A91ED0B1A20EE2B0A81ED63
:103CE0000A0A21EE010A91ED0C1A20EE2B0A81ED51
:103CF0000B0A21EE010A343020EE2B0AB0F5827F48
:103D000081ED0C0A90D1DDF8189000200AEB00013B
:103D10003A1891ED030A92ED014A91ED041A92EDE1
:103D2000025A91ED052A92ED036AB4EE440A91ED30
:103D3000063A92ED047AF1EE10FAB4EE451AC8BFD5
:103D4000B0EE404AF1EE10FAB4EE462A81ED034A95
:103D5000C8BFB0EE415AF1EE10FAB4EE473A81ED29
:103D6000045AC8BFB0EE426A81ED056AF1EE10FA5E
:103D7000C8BFB0EE437A91ED070A92ED051A81EDC6
:103D8000067AB4EE410AF1EE10FAC8BFB0EE401A5E
:103D900091ED080A92ED062A81ED071AB4EE420A67
:103DA000F1EE10FAC8BFB0EE402A91ED090A92ED8B
:103DB000071A09EB0003B4EE410A81ED082AF1EE7F
:103DC00010FAC8BFB0EE401A91ED0A0A93ED002A2E
:103DD00081ED091AB4EE420AF1EE10FAC8BFB0EE56
:103DE000402A91ED0B0A92ED091A81ED0A2AB4EEF0
:103DF000410AF1EE10FAC8BFB0EE401A91ED0C0A7C
:103E000093ED022A81ED0B1AB4EE420AF1EE10FA9C
:103E1000C8BFB0EE402A91ED0D0A92ED0B1A81ED6C
:103E20000C2AB4EE410AF1EE10FAC8BFB0EE401A07
:103E300091ED0E0A92ED0C2A81ED0D1AB4EE420AB4
:103E4000F1EE10FAC8BFB0EE402A91ED0F0A92EDE4
:103E50000D1A81ED0E2AB4EE410AF1EE10FAC8BF38
:103E6000B0EE401A91ED100A92ED0E2A81ED0F1A74
:103E7000B4EE420AF1EE10FAC8BFB0EE402A91ED5E
:103E8000110A92ED0F1A81ED102AB4EE410AF1EEFB
:103E900010FAC8BFB0EE401A91ED120A92ED102A46
:103EA0004030B4EE420AF1EE10FA81ED111AC8BFAB
:103EB000B0EE402AB0F5807F81ED122A7FF426AF64
:103EC000099940F2614081420A987FF6A5AB4EF213
:103ED000FF620020C2F6DB620AEB000191ED030AEB
:103EE0004030B5EE400AF1EE10FA08BFCA6091ED1D
:103EF000040AB5EE400AF1EE10FA08BF0A6191ED2E
:103F0000050AB5EE400AF1EE10FA08BF4A6191EDDC
:103F1000060AB5EE400AF1EE10FA08BF8A6191ED8B
:103F2000070AB5EE400AF1EE10FA08BFCA6191ED3A
:103F3000080AB5EE400AF1EE10FA08BF0A6291EDE8
:103F4000090AB5EE400AF1EE10FA08BF4A6291ED97
:103F50000A0AB5EE400AF1EE10FA08BF8A6291ED46
:103F60000B0AB5EE400AF1EE10FA08BFCA6291EDF5
:103F70000C0AB5EE400AF1EE10FA08BF0A6391EDA3
:103F80000D0AB5EE400AF1EE10FA08BF4A6391ED52
:103F90000E0AB5EE400AF1EE10FA08BF8A6391ED01
:103FA0000F0AB5EE400AF1EE10FA08BFCA6391EDB0
:103FB000100AB5EE400AF1EE10FA08BF0A6491ED5E
:103FC000110AB5EE400AF1EE10FA08BF4A6491ED0D
:103FD000120AB5EE400AF1EE10FA08BF8A64B0F595
:103FE000807F7FF479AFDFEDCBDA0AF10806402459
:103FF00096ED010A3846B0EEC00A351D00F092FB7E
:1040000020EE2E1A31EE2F1A20EE011A31EE0A1A86
:1040100020EE010A9DED101A30EE090AB8EEC11A21
:1040200030EE010A20EE2D0A86ED010A013C2E46F3
:10403000DED142F24000C2F20000016842F24400C8
:1040400042F23C04C2F20000C2F20004026820689E
:1040500041F66853C2F20003C1F804A0536001F0B6
:1040600029FF012802D0206801F06AFE4EF21003F9
:10407000CEF2000342F2D4121868C2F200021468B1
:1040800058689968461C701A10901868C00307D5C4
:104090004EF21000CEF2000014688068301A1090C2
:1040A000109D9DA000F07AF942F2D412C2F20002F3
:1040B000106800BF1168091A01290BD81168091A84
:1040C000012907D81168091A012903D81168091AAA
:1040D0000229EFD391A00BA9FCF7B4F80B98C828DC
:1040E0007EF43AAE4FF47A7105FB01F0B0FBF6F0C6
:1040F00004FB0100FDF716F841F66852C2F2000217
:1041000092ED009AF0EE6CDAF0EE48CA92ED018A78
:10411000DDE90423F0EE689AF0EE4F8AB0EE4EFA35
:10412000B0EE4DEAB0EE4CDAB0EE4ACAB0EE6FAA8D
:10413000F0EE6EFAFCF705FC9FED730B53EC102BC1
:10414000FCF782FC0246B4EE489A77A074A3F0EE26
:104150004AFAB0EE4CAAB0EE4DCAB0EE4EDAB0EE6E
:104160004FEAB0EE68FAF0EE698ADFED699AF1EE97
:1041700010FAC8BF18460B46B0EE6C8AF0EE6DCA56
:1041800000F00CF942F2D412C2F20002106800BF33
:104190001168091A1E293EF6DFAD1168091A1E2999
:1041A0003EF6DAAD1168091A1E293EF6D5AD116842
:1041B000091A1F29ECD3FEF7CFBDB0EE410A00F07B
:1041C000DBFAFFF705B93A6812094AF2B07302F058
:1041D0000F02C0F6000353F8223000291A4618BF18
:1041E000002242F2D4160C29C2F200067EF421AA63
:1041F000F96801F00301022906D0032912BF18460D
:1042000041F20020C0F27A00F968FA68C1F30211A5
:10421000C2F306225043FA680131B0FBF1F0C2F359
:104220004161022202EB4101B0FBF1F242F2D416ED
:10423000C2F20006FEF7FDB93A6812094AF2B073FD
:1042400002F00F02C0F6000353F8223000291A468C
:1042500018BF002242F2D4160C29C2F200067EF4E6
:1042600020AAF96801F00301022906D0032912BF30
:10427000184641F20020C0F27A00F968FA68C1F3EA
:104280000211C2F306225043FA680131B0FBF1F08B
:10429000C2F34161022202EB4101B0FBF1F242F2B2
:1042A000D416C2F20006FEF7FCB9042905D008298D
:1042B00022D141F20020C0F27A0042F2D416C2F2BA
:1042C0000006FEF7D1B9042905D0082917D141F21B
:1042D0000020C0F27A0042F2D416C2F20006FEF7C5
:1042E000FBB942F2D41600230022C2F200060C28C9
:1042F0003EF40BAAFEF72BBA0022002371E700223E
:104300000023A7E700BF00BF0000000080842E410B
:10431000AC3A7D3F9B209A3E6F6B00002564000005
:10432000302C252E36660000312C252E36660000F6
:10433000144810B5016821F00101016000F09FFBF5
:1043400011490968114BC1F30221114A01240429C2
:104350000BD010490C600C68002CFCD10D490839B9
:104360000B60096891420AD0FEE70B498C608C68AB
:10437000002CFCD10B600968914200D0FEE700F0F0
:10438000ECFB10BD002000E0002004E0C2A507F413
:10439000CDB5E8B5084C0258003002400FB4054BCB
:1043A00010B503A9044A029800F0BCFE10BC5DF8E9
:1043B00014FB0000E51A0008040000204100080278
:1043C00018BF04200A0E18BF40F001004FF07F42D2
:1043D00032EA010108BF40F00200012808BF0520B1
:1043E000704700009FED3C0A63E000BF92ED003A89
:1043F00091ED004AD2ED012AD1ED013A04EE030A13
:1044000092ED022A91ED021AD2ED030AD1ED031AC0
:1044100091ED044A03EEA20AD2ED043A92ED053A78
:10442000D1ED052A01EE020A92ED062A92ED071A55
:1044300001EEA00AD1ED061AD1ED070A04EE230A17
:10444000D2ED083A91ED084A02EE830AD2ED092A2C
:1044500091ED093A01EE820A92ED0A2AD1ED0A1A8B
:1044600000EE810A92ED0B1AD1ED0B0A04EE230A3D
:1044700091ED0C4AD1ED0D3A03EE220A92ED0C3A81
:10448000D2ED0D2A01EE820A92ED0E2AD1ED0F1A1D
:1044900000EE810A91ED0E1AD2ED0F0A4031403242
:1044A000103B04EE030A03EEA20A01EE020A01EE3B
:1044B000A00A102B9AD206E0F1EC010A5B1EB2ECC6
:1044C000011A00EE810A002BF6D1D0ED000A30EE81
:1044D000800A80ED000A70470000000030B528B166
:1044E000144C031F002021680A4605E0084630BD31
:1044F0009A4203D810465268002AF9D1002800D009
:1045000041680BD00468A3EB0005A54204D11B68E9
:104510001C440346046002E0436000E023603AB1BB
:104520001C68D51AA54203D115682C441C6052683A
:104530005A6030BD0800002010B510EE104A4FF050
:1045400019406949002200EB44002DED028B88429E
:1045500057D8DFED660A14F0004F60EE200A14BF52
:10456000BEEE001AB6EE001A71EE200AFDEEE00A69
:1045700010EE900A00EE900AF8EEE00A9FED5C1A49
:1045800000EEC10A9FED5B1A00EEC10ADFED5A0A88
:104590009FED5A1A00EE201ADFED590A40EE010A8B
:1045A0009FED581A584B00F0030100EE201A21EE3F
:1045B000000A7B4403EB8103D3ED000A534B7B4499
:1045C00003EB810393ED001A514B41EE000A7B444B
:1045D00003EB8101801091ED000A70EE800AEABBC6
:1045E00000EE100AB8EEC01ADFED4A1A9FED4A0A33
:1045F000BDEC028B01EE210ABCEEC00A20EE200ABF
:1046000010BD4FF0FF40A0431DD04FF0CE40B0EBA7
:10461000440F81BFF7EE000A30EE200ABDEC028B9A
:1046200010BD3E48B0EB440F28BF012291D20220BA
:1046300000F00CF914F0004F15D0BDEC028BBDE872
:10464000104000F0EBB814F5000F02BF9FED340AE4
:10465000BDEC028B10BDBDEC028B00E009E0BDE8B3
:10466000104000F0CFB8BDEC028BBDE8104000F068
:10467000CDB800EBD07359104FF07E5202EBC15110
:1046800000EE101AA0EB630002EBC05060EE200AAF
:1046900000EE100A20EE208A18EE100A88B118EEFB
:1046A000100AB0F1FF4F15D018EE100AFFF786FE82
:1046B000042808BF00F0B2F8B0EE480ABDEC028B47
:1046C00010BD022000F0C2F8BDEC028BBDE8104026
:1046D00000F0A4B8022000F0B9F8BDEC028BBDE8F0
:1046E000104000F093B800000000501E3BAAB840F4
:1046F0000070313EF4FD053712BB2A3D12BB2A3E45
:10470000FFFFFF3EFFFF7F3F3A2000003E200000FA
:104710000E2000000000004B00007E4E0000A0852F
:104720000000000010EE101A0023036021F0004288
:10473000B2F1FF4FA8BF7047002A08BF7047B2F51B
:10474000000F0ADA6FF01603DFED0A0A036020EEAD
:10475000200A10EE101A21F000426FF07D0C0CEBD5
:10476000E2521A44026021F0FF4040F07C5000EE1B
:10477000100A70470000004B10B52DED028BB1EE12
:10478000C08A18EE100A20F00040C0F1FF40C00FB0
:104790000AD010EE100A20F00040C0F1FF40C00F18
:1047A00004BF012000F052F8B0EE480ABDEC028BC5
:1047B00010BD00002DE9F04782460F4C10480D4E09
:1047C0000E4F001B4FF0000820F007054FF00109C5
:1047D00000221146504601F085FD002802D13068C4
:1047E00010B10020BDE8F0873C60C4E90058C6F86D
:1047F0000090EDE70C000020E421002008000020DC
:10480000E029002030EE000A704700009FED020A08
:1048100020EE000A70470000000000709FED020AC1
:1048200020EE000A704700000000001002E008C8F7
:10483000121F08C1002AFAD170477047002001E01A
:1048400001C1121F002AFBD1704700000149086016
:104850007047000010000020F0B5059D25F0010410
:1048600003EB84069FED460AEF085AE051F8044B2B
:10487000D3ED002A04F0FF0C4FEA1C1E02EB8E0E53
:104880000CF00F0C9EED002A02EB8C0C02EE220ABB
:10489000DCED001A93ED012AC4F3072C4FEA1C1E2D
:1048A00002EB8E0E01EE820A9EED001AD3ED021A83
:1048B0000CF00F0C02EB8C0CD3ED042A01EE210A54
:1048C000DCED000A93ED031AC4F3074C4FEA1C1EFB
:1048D00002EB8E0E00EE810A9EED002A0CF00F0C0A
:1048E00002EB8C0C240EDCED001A02EE220A93ED92
:1048F000052A4FEA141C02EB8C0C04F00F049CED0B
:10490000001A01EE820AD3ED061A02EB8404D4EDFC
:10491000000A01EE210A93ED071A20337F1E00EEF4
:10492000810A002FA2D115E011F8014B93ED001A76
:10493000270902EB870704F00F04D7ED000A02EB0A
:10494000840400EE810AD4ED000A93ED011A0833C5
:1049500000EE810AB342E7D3EC0709D0097893ED62
:10496000001A090902EB8101D1ED000A00EE810A6B
:10497000D0ED000A30EE800A80ED000AF0BD0000A4
:1049800000000000F0B59FED380A059DEE0851E0EB
:1049900051F8044BD3ED002AE7B202EB8707D7EDBD
:1049A000001AC4F3072702EB870701EEA20A97ED6E
:1049B000002AD3ED011AC4F3074702EB8707240E40
:1049C00002EE210A97ED001AD3ED021A02EB8404DD
:1049D000D3ED042AD4ED000A01EE210A93ED031A67
:1049E00051F8044BE7B202EB870700EE810A97ED1E
:1049F000002AC4F3072702EB8707D7ED001A02EE5F
:104A0000220A93ED052AC4F3074702EB8707240E19
:104A100097ED001A01EE820AD3ED061A02EB840428
:104A2000D4ED000A01EE210A93ED071A2033761E19
:104A300000EE810A002EABD105F007040BE000BFA9
:104A400011F8015B641E02EB8505B3EC011AD5ED8C
:104A5000000A00EE810A002CF2D1D0ED000A30EEFF
:104A6000800A80ED000AF0BD0000000010B5416929
:104A7000044688472069A04200D1002010BD0120D3
:104A8000704700002DE9F04F002799B08946044691
:104A90003E46B84646E0A068C6EBC602416801EB58
:104AA00082010E91806810A900EBC60A28480D917A
:104AB000AA68406A120A62F31F2001901C2105A80F
:104AC000D5F80CB0FBF797FBA869006800F0EEFE84
:104AD0000590A869806806905FEA0A0008D0C0F8CF
:104AE00000802968416029B1498819B1012102E09B
:104AF000404603E00021016001B900200790A86949
:104B000001991C224068CDE90A1B099005A90D985E
:104B1000FBF758FB1C2210A90E98FBF753FB7F1CD8
:104B2000BFB2761C0CB1208800E00020B04205D94D
:104B3000606818B150F82650002DACD11FB1A068A4
:104B40004168C9F8001019B0384600F003B80000F9
:104B50007465000830BCBDE8C08F70472DE9FF5F69
:104B600082B00021DDE90430020DDDF840B00343DE
:104B700018D044F61050A2F2FF3242431514119897
:104B800001281FD0A5EB0B00401C5FEA000A4FF084
:104B900000064E4FDFF83891B046504615D5CAF1A1
:104BA000000413E0119801244AA3012801D16FEAFF
:104BB0000B010298119AC0E90031C0E9024206B027
:104BC00000F08EB8CBF10000DFE704460021404A38
:104BD000491842EB0450CDE9001012E0E00707D07D
:104BE00032463B4640464946FBF7B9FE8046894679
:104BF00032463B4610461946FBF7B1FE06460F46C5
:104C00006410002CEAD1DDE90401DDE90023BAF1EA
:104C1000000F06DAFBF7A3FE42464B46FBF79FFE6A
:104C200005E0FBF711FF42464B46FBF70DFF04463C
:104C30000E460022284BFBF79BFF03D84FF0FF30B6
:104C4000014607E00022254B20463146FBF7D8FD00
:104C5000FBF775FF102409E0002C0ADB0A22002371
:104C6000FBF773FD039B30321A55641E50EA0102B4
:104C7000F2D1641C039AC4F111031444119A012A5D
:104C800003D0012208430DD10AE0084304D00020DC
:104C90004FF0110B119072E7A3EB0B056D1E0DE0A9
:104CA0005B4504DD4FF0000205F1010504E003DA85
:104CB0004FF00002A5F10105002AECD002981199ED
:104CC000C0E90231C0E9004579E700000000144066
:104CD0000000F03F300000000000F0430000E03F23
:104CE00030BCBDE8C09F30380A2801D2012070478F
:104CF0000020704770B505460C4648886988884290
:104D000002D9AAB1002070BD92B100260CE000BF0C
:104D10006168C6EBC6006A6801EB800102EB8000A7
:104D20001C22FBF74FFA761C6088B042F0D801E0F5
:104D3000606868606088688020882880012070BD75
:104D400030B500B3F9B1F2B15268E2B10F4C13685B
:104D5000A34203D00260012913D014E00023121DE6
:104D600007E000BF52F82350A54204D040F823507A
:104D70005B1C8B42F6D38B4205D152F82300A04234
:104D800001D1012030BD002030BD0000DECAFAA1F3
:104D900070B50D46060014461AD0CCB1104600F08E
:104DA0002BFE00B16088A84212D10023042109E043
:104DB000C3EBC302606801EB8202805820B146F861
:104DC00023005B1CAB42F3D3AB4201D1012070BD89
:104DD000002070BD0349884201D1012070470020A6
:104DE00070470000DECAFAA12DE9FE4F92468946BF
:104DF000040003D0A08D20B1256B03E0002000F05B
:104E0000FBB800250020E082A082207BC043800701
:104E100002D030221121DCE0B9F1000F61D0D5B30E
:104E20002888C0B3D9F818000026D0F8008056E0D2
:104E3000A868006800EB0610019052D058B3C6EB8A
:104E4000C600029009EB80000121009000F0DEFD19
:104E5000DBF81830596888421AD80098DBF80C2023
:104E60008069D768D0F80CC0674511D19768D0F831
:104E700008C067450CD152684068824208D1186862
:104E800000F005FD0746584601F018FA874203D2A4
:104E9000182212219DE024E0DBF81800006800F0E1
:104EA00005FD029920F07E4259F8210020F07E4055
:104EB000824201D01922ECE70098406888B100983E
:104EC0008069006878B14146404500D20846804676
:104ED000DDE900105A4600F092F8761C2DB12888C2
:104EE00004E01722D5E72122D3E70020B04206D9FB
:104EF000686820B150F826B0BBF1000F98D1BAF124
:104F0000000F74D0A08D012806D9256B0C3503D075
:104F1000288808B1002658E0182259E0A8680068DF
:104F200000EB061B3BD0BBF1000F38D0C6EBC60030
:104F300001900AEB80000121009000F067FDD9F894
:104F4000183059688842E7D80098D9F80C20806951
:104F5000D768D0F80CC06745DED19768D0F808C094
:104F60006745D9D1526840688242D5D1186800F0AF
:104F70008EFC0746484601F0A1F98742CCD3D9F808
:104F80001800006800F092FC20F07E4201985AF868
:104F9000200020F07E40824203D0192218E0172220
:104FA00016E0009840680028F9D0009880690068F1
:104FB00068B14146404500D2084680464A465846B8
:104FC000009900F01CF8761C3DB1288806E02122EB
:104FD0001321204600F098FF10E70020B04206D9C8
:104FE000686820B150F82690B9F1000F96D1A4F866
:104FF00014804FF0010002E71EBCBDE8E08F70B5E1
:1050000004460E461546104601F058F90146A060C8
:10501000B06900684843E06071686160726810447C
:105020002060A8690268920007D4D0E90223D21A4E
:1050300011448160A9696068C86070BD70B505469B
:10504000002621E0A9688369096801EB0614196844
:10505000890005D5D4E901129868FBF7B3F808E098
:10506000D3E90212891A6268114499608069616803
:10507000C160D4E90101084460602168884201D31D
:10508000E068081A761C60600DB1288800E00020F6
:10509000B04206D96868002803D050F826000028DE
:1050A000D0D170BD2DE9F041054600262BE0A9685E
:1050B000096801EB061481690A6892000FD5A2689D
:1050C00089686068FBF77EF8D4E9011001446160EB
:1050D0002068814201D3E168411A616012E0D4E99D
:1050E0000112114461602268914201D3E168511AB2
:1050F00061608269D2E90237DB1B194491608069E3
:105100006168C160761C0DB1288800E00020B042C3
:1051100006D96868002803D050F826000028C6D1B8
:10512000BDE8F0812DE9FF4F95B09B4689460646C4
:1051300000250FE2252877D100242746F84A0121CF
:10514000059400E0044316F8013F203B01FA03F008
:105150001042F7D130782A2811D06FF02F03307821
:10516000A0F13002092A16D8059A44F0020402EB95
:10517000820203EB42021044761C0590EFE759F8D7
:10518000042B0592002A03DA504244F4005405909F
:1051900044F00204761C30782E2816D116F8010F40
:1051A00044F004042A280DD06FF02F023078A0F1CB
:1051B0003003092B09D807EB870302EB4303C71819
:1051C000761CF3E759F8047B761C30786C280FD0F6
:1051D00006DC4C2817D068280DD06A2814D104E0CA
:1051E000742810D07A280FD10DE044F400140AE09E
:1051F00044F4801401E044F440147278824202D1F5
:1052000004F58014761C761C307866280BD013DCED
:10521000582877D009DC002875D04528F6D04628D4
:10522000F4D047281AD19DE118E0632835D06428CE
:1052300079D0652812D195E1702873D008DC6728F1
:10524000F1D069286FD06E280DD06F2806D1B5E057
:1052500073282CD0752875D0782874D05A461799A1
:1052600090476D1C75E1C4F30250022809D0032851
:105270000DD0D9F8001004280DD00D6009F10409F3
:1052800067E1D9F80010EA17C1E90052F6E7D9F84A
:1052900000100D80F2E70D70F0E719F8041B8DF88F
:1052A000001000208DF80100EA46012003E059F8C3
:1052B00004AB4FF0FF3061074FF0000102D40DE066
:1052C00008F101018846B9420FDA8045F8DB1AF887
:1052D00008100029F4D108E008F101018846814254
:1052E000FADB1AF808100029F6D105985B46A0EB06
:1052F000080721463846179A00F097FA284400EB31
:10530000080507E04DE029E10DE01AF8010B5A46C7
:1053100017999047B8F10108F7D25B462146384605
:10532000179A13E142E00A220092C4F302524FF0AE
:10533000000A022A08D059F804CB032A4FEAEC717C
:105340000AD00DE029E02AE009F1070121F0070267
:10535000F2E802C1914609E00FFA8CFC4FEAEC71C9
:10536000042A03D14FFA8CFC4FEAEC71002907DACA
:105370000A460021DCF1000C61EB02012D2202E063
:10538000220504D52B228DF80420012203E0E20738
:1053900001D02022F7E7904659E00A2102E01022CE
:1053A0000DE010214FF0000A00910BE010224FF0A9
:1053B000000A44F004040827009203E008224FF09A
:1053C000000A0092C4F30252022A05D059F804CB15
:1053D0000021032A08D009E009F1070121F00702A2
:1053E000F2E802C1914605E01FFA8CFC042A01D1C3
:1053F0000CF0FF0C4FF00008220728D5702806D0CB
:10540000009B83F0100353EA0A0305D00EE040220C
:105410008DF80420012208E05CEA010206D0302267
:105420008DF804208DF8050002229046009B83F041
:10543000080353EA0A030AD15CEA010201D16207B8
:1054400005D530228DF804204FF001087F1E582822
:1054500004D034A003900EA802900DE036A0F9E726
:1054600053466046009AFBF770F984460398825CC5
:105470000298401E029002705CEA0100F0D102988E
:1054800006A9081A00F1200A600702D524F4803426
:1054900000E00127574502DDA7EB0A0000E00020ED
:1054A00000EB0A01009005984144401A0590E00382
:1054B00006D45B462146179A059800F0B6F90544D4
:1054C000002706E001A85A46C05D179990476D1C59
:1054D0007F1C4745F6DBE0030CD55B462146179A57
:1054E000059800F0A2F9054404E030205A461799C7
:1054F00090476D1C0099481E00900029F5DC08E0DB
:10550000029802995A460078491C029117999047CF
:105510006D1CBAF10001AAF1010AF1DC65E100009D
:105520000928010030313233343536373839616279
:10553000636465660000000030313233343536373D
:1055400038394142434445460000000000F05BF911
:105550000544761C307800287FF4ECAD19B028465D
:1055600000F04EB9620700D4062709F1070222F0C5
:10557000070CFCE80223E14603F000485FEA080C50
:1055800002D00FF2702C0DE05FEA045C02D50FF23E
:10559000682C07E05FEAC47C02D00FF2602C01E0C7
:1055A000AFF2700C4FF0FF3823F00043CDF850C03D
:1055B00065280CD006DC452809D046281DD0472890
:1055C0003DD13DE0662818D067287ED138E0002123
:1055D000112F01DB112000E0781CCDE9000106A9A4
:1055E0000EA8FFF7BBFADDE90F010E9A0391002127
:1055F000009207F1010A04914DE04FF0004000973E
:10560000CDE9011006A90EA8FFF7A8FADDE90F02FF
:1056100003920E9B11990022DDF80CA000930492D6
:1056200011B9791C00EB010AB7EB0A0004D4C0F1F0
:10563000FF3007F1010A0490AAEB0700019044E053
:10564000012F00DA01270021112F01DD112000E0D8
:105650003846CDE9000106A90EA8FFF77FFADDE97B
:105660000F010E9A0391002104910092BA4621077E
:105670000CD40399514500DA8A46BAF1010F05DDD1
:10568000009AAAF10101515C302908D0B84202DA2F
:1056900010F1040F06DA0121CDE9011015E0AAF19D
:1056A0000101E9E7002805DC049901440491AAEB13
:1056B000000102E0411C514500DD8A460499401A70
:1056C000401C01904FF000400290200704D4019844
:1056D000504501DBCDF8048000208DF84F00029882
:1056E0000DF14F07B0F1004F25D02B200E900298FE
:1056F0004FF0020800280CDA404202902D200E9054
:1057000007E00A210298FBF70AF83031029007F807
:10571000011DB8F10001A8F10108F2DC029800288F
:10572000EFD1791E0E980870307800F0200040F01C
:10573000450007F8020D12A8C01B00F107081498D5
:10574000007800B1012000EB0A01019801EBE07143
:1057500005984144401A401E0590E00306D45B467C
:105760002146179A059800F060F8054414980078CF
:1057700018B15A46179990476D1CE00324D55B4633
:105780002146179A059800F050F805441CE004984B
:10579000002807DBDDE90301884203DD0098405C57
:1057A000179901E0179930205A469047049805F15F
:1057B0000105401C04900198401E019004D12E2048
:1057C0005A46179990476D1CBAF10001AAF1010AD7
:1057D000DDDC05E017F8010B5A46179990476D1C60
:1057E000B8F10001A8F10108F4DC5B462146179AE4
:1057F0000598ABE62D0000002B0000002000000003
:1058000030BCBDE8C08F2DE9F041044600251E469E
:105810001746880404D405E039462020B0476D1CA3
:10582000641EF9D52846BDE8F0812DE9F041044613
:1058300000251E469046C80301D5302700E02027EA
:10584000880404D505E041463846B0476D1C641E07
:10585000F9D52846BDE8F08179B1C0F3C6125143AD
:10586000C91DC0F3415321F00701D940C0F34340A3
:10587000042804D0082807D104E00020704701EB79
:10588000021101E001EB0221C91DC808704759B19E
:10589000C0F3C6125143C91D21F00701C0F34150A6
:1058A000C140C91DC80870470020704770B540212D
:1058B000C0F34342022A1BD0394A20F07E439C1A8F
:1058C0000D014E0193425FD029DC364AA3EB02045E
:1058D000934259D019DC402B57D0403BB3F580237D
:1058E0004CD0802B37D0AB424FD12E49C91F4CE052
:1058F000C0F3C051C905C0F3C61241EAC21100F09D
:105900007F02114341F480213FE0A4F54074F93C4B
:105910001FD00F2C35D0B44237D1234935E0234B6B
:10592000E21A9C421BD00BDC214AA2181DD0802A0F
:1059300019D0AA4211D0A2F58062073A25D117E00A
:105940000F2A18D0B2420CD01A4BDA421DD11A4994
:105950001BE01A4919E01A4917E01A4915E01A49DB
:1059600013E01A4911E01A490FE0194980390CE097
:105970001449C91D09E014490F3106E01049803966
:1059800003E00E490F3100E0114600F080420A4367
:1059900000F00051114300F00060084370BD0000AA
:1059A00040040600470404004010040000047E0088
:1059B000000482FF00F801FF40108201400804004B
:1059C000C0000400400484004008840040108400AB
:1059D000C000840070B514460D46064600F00CF871
:1059E00040B17068C5EBC50110EB810002D0446086
:1059F000012070BD002070BD28B1416819B14088F8
:105A000008B10120704700207047000010B5020067
:105A10002AD0164B1068B3EBC01F03D0144BB3EB66
:105A2000C01F01D1012000E00020084290694068B9
:105A300002D01F3020F01F005369D9B2012900D0D5
:105A400000211C0A07E0012907D0936953F821308F
:105A50005843491C1AB1234602E00123F8E700230A
:105A60008B42F0DC002800DC002010BD006000420A
:105A70000060000208B509A10968009148B10178E9
:105A80009DF80020914204D104226946FAF7BEFB3A
:105A900008B1002008BD012008BD00000384048473
:105AA00070B5C66B416B04460025AEB1E9B1A16388
:105AB0000120226CB0470220226CA16BB047A06B82
:105AC000FEF7D4FFA06301460320226CB047A06B11
:105AD0006D1C0028EFD108E039B1A163A06BFEF77F
